{"abi":[{"type":"constructor","inputs":[],"stateMutability":"nonpayable"},{"type":"fallback","stateMutability":"payable"},{"type":"receive","stateMutability":"payable"},{"type":"function","name":"buboToken","inputs":[],"outputs":[{"name":"","type":"address","internalType":"contract BuboToken"}],"stateMutability":"view"},{"type":"function","name":"ethPriceFeedDecimals","inputs":[],"outputs":[{"name":"","type":"uint256","internalType":"uint256"}],"stateMutability":"view"},{"type":"function","name":"getBuboBalance","inputs":[],"outputs":[{"name":"","type":"uint256","internalType":"uint256"}],"stateMutability":"view"},{"type":"function","name":"getLatestEthPrice","inputs":[],"outputs":[{"name":"","type":"int256","internalType":"int256"}],"stateMutability":"view"},{"type":"function","name":"getUsdtBalance","inputs":[],"outputs":[{"name":"","type":"uint256","internalType":"uint256"}],"stateMutability":"view"},{"type":"function","name":"owner","inputs":[],"outputs":[{"name":"","type":"address","internalType":"address payable"}],"stateMutability":"view"},{"type":"function","name":"ownerSendEtherTo","inputs":[{"name":"_recipient","type":"address","internalType":"address payable"},{"name":"_amount","type":"uint256","internalType":"uint256"}],"outputs":[],"stateMutability":"nonpayable"},{"type":"function","name":"sendEther","inputs":[],"outputs":[],"stateMutability":"payable"},{"type":"function","name":"tokenPriceInUSD","inputs":[],"outputs":[{"name":"","type":"uint256","internalType":"uint256"}],"stateMutability":"view"},{"type":"function","name":"transferTokensTo","inputs":[{"name":"_recipient","type":"address","internalType":"address"},{"name":"amount","type":"uint256","internalType":"uint256"}],"outputs":[],"stateMutability":"payable"},{"type":"function","name":"usdtToken","inputs":[],"outputs":[{"name":"","type":"address","internalType":"contract UsdtToken"}],"stateMutability":"view"},{"type":"function","name":"withdrawEth","inputs":[],"outputs":[],"stateMutability":"nonpayable"},{"type":"function","name":"withdrawTokens","inputs":[{"name":"_amount","type":"uint256","internalType":"uint256"}],"outputs":[],"stateMutability":"nonpayable"},{"type":"function","name":"withdrawUsdt","inputs":[{"name":"_recipient","type":"address","internalType":"address"},{"name":"_amount","type":"uint256","internalType":"uint256"}],"outputs":[],"stateMutability":"nonpayable"},{"type":"event","name":"BuboTokensReceived","inputs":[{"name":"sender","type":"address","indexed":true,"internalType":"address"},{"name":"amount","type":"uint256","indexed":false,"internalType":"uint256"}],"anonymous":false},{"type":"event","name":"EtherSentByOwner","inputs":[{"name":"sender","type":"address","indexed":true,"internalType":"address"},{"name":"recipient","type":"address","indexed":true,"internalType":"address"},{"name":"amount","type":"uint256","indexed":false,"internalType":"uint256"}],"anonymous":false},{"type":"event","name":"TokensPurchased","inputs":[{"name":"buyer","type":"address","indexed":false,"internalType":"address"},{"name":"amountPaid","type":"uint256","indexed":false,"internalType":"uint256"},{"name":"amountOfTokens","type":"uint256","indexed":false,"internalType":"uint256"}],"anonymous":false},{"type":"event","name":"TokensTransferred","inputs":[{"name":"recipient","type":"address","indexed":false,"internalType":"address"},{"name":"amountOfTokens","type":"uint256","indexed":false,"internalType":"uint256"}],"anonymous":false},{"type":"event","name":"UsdtWithdrawn","inputs":[{"name":"owner","type":"address","indexed":true,"internalType":"address"},{"name":"recipient","type":"address","indexed":true,"internalType":"address"},{"name":"amount","type":"uint256","indexed":false,"internalType":"uint256"}],"anonymous":false}],"bytecode":{"object":"0x60e06040526605543df729c000600055600860015534801561002057600080fd5b50734b00c4433d092220355955e0edf6b527da970d7b60805273dac17f958d2ee523a2206206994597c13d831ec760a0523360c052600280546001600160a01b03191673694aa1769357215de4fac081bf1f309adc32530617905560805160a05160c0516111eb6101206000396000818160f1015281816103530152818161048a015281816106e301528181610968015281816109ec01528181610ae201528181610b5c01528181610baf0152610d3f0152600081816105010152818161065f0152610e6401526000818161017501528181610263015281816105a0015281816107ad0152818161089e01528181610a1b0152610cfd01526111eb6000f3fe6080604052600436106100e15760003560e01c8063a0ef91df1161007f578063d60fb17411610059578063d60fb17414610543578063ed09245114610558578063f076e0f114610578578063fbd6c0f91461058e57610329565b8063a0ef91df146104da578063a98ad46c146104ef578063cc91c8b01461052357610329565b806330c0b9ec116100bb57806330c0b9ec14610443578063315a095d146104585780638da5cb5b146104785780639223d06d146104c457610329565b806306292f2b146104005780630e29df22146104285780632be8c2a51461043057610329565b3661032957336001600160a01b037f000000000000000000000000000000000000000000000000000000000000000016146103275760006101206105c2565b905060008054600154600a610135919061101d565b61013f8434611030565b6101499190611030565b6101539190611047565b6040516370a0823160e01b815230600482015290915081906001600160a01b037f000000000000000000000000000000000000000000000000000000000000000016906370a0823190602401602060405180830381865afa1580156101bc573d6000803e3d6000fd5b505050506040513d601f19601f820116820180604052508101906101e09190611069565b10156102075760405162461bcd60e51b81526004016101fe90611082565b60405180910390fd5b604080513381523460208201529081018290527f8fafebcaf9d154343dad25669bfa277f4fbacd7ac6b0c4fed522580e040a0f339060600160405180910390a160405163a9059cbb60e01b8152336004820152602481018290527f00000000000000000000000000000000000000000000000000000000000000006001600160a01b03169063a9059cbb906044016020604051808303816000875af11580156102b4573d6000803e3d6000fd5b505050506040513d601f19601f820116820180604052508101906102d891906110ca565b6103245760405162461bcd60e51b815260206004820152601e60248201527f4661696c656420746f207472616e73666572204275626f20546f6b656e73000060448201526064016101fe565b50505b005b33734b00c4433d092220355955e0edf6b527da970d7b148015906103765750336001600160a01b037f00000000000000000000000000000000000000000000000000000000000000001614155b156103275760405162461bcd60e51b815260206004820152604e60248201527f556e737570706f72746564206f7065726174696f6e3a2073656e64696e67207460448201527f6f6b656e73206469726563746c7920746f207468697320636f6e74726163742060648201526d1a5cc81b9bdd08185b1b1bddd95960921b608482015260a4016101fe565b34801561040c57600080fd5b50610415610647565b6040519081526020015b60405180910390f35b6103276106d8565b61032761043e366004611101565b61074e565b34801561044f57600080fd5b506104156105c2565b34801561046457600080fd5b5061032761047336600461112d565b61095d565b34801561048457600080fd5b506104ac7f000000000000000000000000000000000000000000000000000000000000000081565b6040516001600160a01b03909116815260200161041f565b3480156104d057600080fd5b5061041560015481565b3480156104e657600080fd5b50610327610ad7565b3480156104fb57600080fd5b506104ac7f000000000000000000000000000000000000000000000000000000000000000081565b34801561052f57600080fd5b5061032761053e366004611101565b610ba4565b34801561054f57600080fd5b50610415610ce5565b34801561056457600080fd5b50610327610573366004611101565b610d34565b34801561058457600080fd5b5061041560005481565b34801561059a57600080fd5b506104ac7f000000000000000000000000000000000000000000000000000000000000000081565b600080600260009054906101000a90046001600160a01b03166001600160a01b031663feaf968c6040518163ffffffff1660e01b815260040160a060405180830381865afa158015610618573d6000803e3d6000fd5b505050506040513d601f19601f8201168201806040525081019061063c9190611165565b509195945050505050565b6040516370a0823160e01b81523060048201526000907f00000000000000000000000000000000000000000000000000000000000000006001600160a01b0316906370a08231906024015b602060405180830381865afa1580156106af573d6000803e3d6000fd5b505050506040513d601f19601f820116820180604052508101906106d39190611069565b905090565b336001600160a01b037f0000000000000000000000000000000000000000000000000000000000000000161461074c5760405162461bcd60e51b815260206004820152601960248201527827b7363c9037bbb732b91031b0b71039b2b7321022ba3432b960391b60448201526064016101fe565b565b60006107586105c2565b905060008054600154600a61076d919061101d565b6107778486611030565b6107819190611030565b61078b9190611047565b6040516370a0823160e01b815230600482015290915081906001600160a01b037f000000000000000000000000000000000000000000000000000000000000000016906370a0823190602401602060405180830381865afa1580156107f4573d6000803e3d6000fd5b505050506040513d601f19601f820116820180604052508101906108189190611069565b10156108365760405162461bcd60e51b81526004016101fe90611082565b604080516001600160a01b0386168152602081018390527f12f4533b5cbd2c9f8a0752a2d0b16379af992dbb2a0844a5007a19d983b3a934910160405180910390a160405163a9059cbb60e01b81526001600160a01b038581166004830152602482018390527f0000000000000000000000000000000000000000000000000000000000000000169063a9059cbb906044016020604051808303816000875af11580156108e7573d6000803e3d6000fd5b505050506040513d601f19601f8201168201806040525081019061090b91906110ca565b6109575760405162461bcd60e51b815260206004820152601e60248201527f4661696c656420746f207472616e73666572204275626f20746f6b656e73000060448201526064016101fe565b50505050565b336001600160a01b037f000000000000000000000000000000000000000000000000000000000000000016146109d55760405162461bcd60e51b815260206004820152601e60248201527f4f6e6c79206f776e65722063616e20776974686472617720746f6b656e73000060448201526064016101fe565b60405163a9059cbb60e01b81526001600160a01b037f000000000000000000000000000000000000000000000000000000000000000081166004830152602482018390527f0000000000000000000000000000000000000000000000000000000000000000169063a9059cbb906044016020604051808303816000875af1158015610a64573d6000803e3d6000fd5b505050506040513d601f19601f82011682018060405250810190610a8891906110ca565b610ad45760405162461bcd60e51b815260206004820152601e60248201527f4661696c656420746f207472616e73666572204275626f20546f6b656e73000060448201526064016101fe565b50565b336001600160a01b037f00000000000000000000000000000000000000000000000000000000000000001614610b4f5760405162461bcd60e51b815260206004820152601b60248201527f4f6e6c79206f776e65722063616e20776974686472617720455448000000000060448201526064016101fe565b6040516001600160a01b037f000000000000000000000000000000000000000000000000000000000000000016904780156108fc02916000818181858888f19350505050158015610ad4573d6000803e3d6000fd5b336001600160a01b037f00000000000000000000000000000000000000000000000000000000000000001614610c185760405162461bcd60e51b815260206004820152601960248201527827b7363c9037bbb732b91031b0b71039b2b7321022ba3432b960391b60448201526064016101fe565b6001600160a01b038216610c6a5760405162461bcd60e51b8152602060048201526019602482015278496e76616c696420726563697069656e74206164647265737360381b60448201526064016101fe565b6040518181526001600160a01b0383169033907fbe3a4157e36eedcd34f3c6a58f8a18d999f1549c785d851410fbe86e5dcb52f09060200160405180910390a36040516001600160a01b0383169082156108fc029083906000818181858888f19350505050158015610ce0573d6000803e3d6000fd5b505050565b6040516370a0823160e01b81523060048201526000907f00000000000000000000000000000000000000000000000000000000000000006001600160a01b0316906370a0823190602401610692565b336001600160a01b037f00000000000000000000000000000000000000000000000000000000000000001614610dac5760405162461bcd60e51b815260206004820152601c60248201527f4f6e6c79206f776e65722063616e20776974686472617720555344540000000060448201526064016101fe565b6001600160a01b038216610dfe5760405162461bcd60e51b8152602060048201526019602482015278496e76616c696420726563697069656e74206164647265737360381b60448201526064016101fe565b6040518181526001600160a01b0383169033907f4493c26ff5e00ded790a0a858dd52a8befef20965775be2a94d241734c6c811c9060200160405180910390a360405163a9059cbb60e01b81526001600160a01b038381166004830152602482018390527f0000000000000000000000000000000000000000000000000000000000000000169063a9059cbb906044016020604051808303816000875af1158015610ead573d6000803e3d6000fd5b505050506040513d601f19601f82011682018060405250810190610ed191906110ca565b610f1d5760405162461bcd60e51b815260206004820152601760248201527f4661696c656420746f207472616e73666572205553445400000000000000000060448201526064016101fe565b5050565b634e487b7160e01b600052601160045260246000fd5b600181815b80851115610f72578160001904821115610f5857610f58610f21565b80851615610f6557918102915b93841c9390800290610f3c565b509250929050565b600082610f8957506001611017565b81610f9657506000611017565b8160018114610fac5760028114610fb657610fd2565b6001915050611017565b60ff841115610fc757610fc7610f21565b50506001821b611017565b5060208310610133831016604e8410600b8410161715610ff5575081810a611017565b610fff8383610f37565b806000190482111561101357611013610f21565b0290505b92915050565b60006110298383610f7a565b9392505050565b808202811582820484141761101757611017610f21565b60008261106457634e487b7160e01b600052601260045260246000fd5b500490565b60006020828403121561107b57600080fd5b5051919050565b60208082526028908201527f496e73756666696369656e74204275626f20546f6b656e7320696e207468652060408201526718dbdb9d1c9858dd60c21b606082015260800190565b6000602082840312156110dc57600080fd5b8151801515811461102957600080fd5b6001600160a01b0381168114610ad457600080fd5b6000806040838503121561111457600080fd5b823561111f816110ec565b946020939093013593505050565b60006020828403121561113f57600080fd5b5035919050565b805169ffffffffffffffffffff8116811461116057600080fd5b919050565b600080600080600060a0868803121561117d57600080fd5b61118686611146565b94506020860151935060408601519250606086015191506111a960808701611146565b9050929550929590935056fea264697066735822122066598234c213b6724eaff1eef1746a38252e38606ecada07df262eb13926f65164736f6c63430008180033","linkReferences":{}},"methodIdentifiers":{"buboToken()":"fbd6c0f9","ethPriceFeedDecimals()":"9223d06d","getBuboBalance()":"d60fb174","getLatestEthPrice()":"30c0b9ec","getUsdtBalance()":"06292f2b","owner()":"8da5cb5b","ownerSendEtherTo(address,uint256)":"cc91c8b0","sendEther()":"0e29df22","tokenPriceInUSD()":"f076e0f1","transferTokensTo(address,uint256)":"2be8c2a5","usdtToken()":"a98ad46c","withdrawEth()":"a0ef91df","withdrawTokens(uint256)":"315a095d","withdrawUsdt(address,uint256)":"ed092451"},"id":1}