{"abi":[{"type":"constructor","inputs":[],"stateMutability":"nonpayable"},{"type":"fallback","stateMutability":"payable"},{"type":"receive","stateMutability":"payable"},{"type":"function","name":"buboToken","inputs":[],"outputs":[{"name":"","type":"address","internalType":"contract BuboToken"}],"stateMutability":"view"},{"type":"function","name":"ethPriceFeedDecimals","inputs":[],"outputs":[{"name":"","type":"uint256","internalType":"uint256"}],"stateMutability":"view"},{"type":"function","name":"getBuboBalance","inputs":[],"outputs":[{"name":"","type":"uint256","internalType":"uint256"}],"stateMutability":"view"},{"type":"function","name":"getLatestEthPrice","inputs":[],"outputs":[{"name":"","type":"int256","internalType":"int256"}],"stateMutability":"view"},{"type":"function","name":"owner","inputs":[],"outputs":[{"name":"","type":"address","internalType":"address payable"}],"stateMutability":"view"},{"type":"function","name":"ownerSendEtherTo","inputs":[{"name":"_recipient","type":"address","internalType":"address payable"},{"name":"_amount","type":"uint256","internalType":"uint256"}],"outputs":[],"stateMutability":"nonpayable"},{"type":"function","name":"sendEther","inputs":[],"outputs":[],"stateMutability":"payable"},{"type":"function","name":"tokenPriceInUSD","inputs":[],"outputs":[{"name":"","type":"uint256","internalType":"uint256"}],"stateMutability":"view"},{"type":"function","name":"transferTokensTo","inputs":[{"name":"_recipient","type":"address","internalType":"address"},{"name":"amount","type":"uint256","internalType":"uint256"}],"outputs":[],"stateMutability":"payable"},{"type":"function","name":"withdrawEth","inputs":[],"outputs":[],"stateMutability":"nonpayable"},{"type":"function","name":"withdrawTokens","inputs":[{"name":"_amount","type":"uint256","internalType":"uint256"}],"outputs":[],"stateMutability":"nonpayable"},{"type":"event","name":"BuboTokensReceived","inputs":[{"name":"sender","type":"address","indexed":true,"internalType":"address"},{"name":"amount","type":"uint256","indexed":false,"internalType":"uint256"}],"anonymous":false},{"type":"event","name":"EtherSentByOwner","inputs":[{"name":"sender","type":"address","indexed":true,"internalType":"address"},{"name":"recipient","type":"address","indexed":true,"internalType":"address"},{"name":"amount","type":"uint256","indexed":false,"internalType":"uint256"}],"anonymous":false},{"type":"event","name":"TokensPurchased","inputs":[{"name":"buyer","type":"address","indexed":false,"internalType":"address"},{"name":"amountPaid","type":"uint256","indexed":false,"internalType":"uint256"},{"name":"amountOfTokens","type":"uint256","indexed":false,"internalType":"uint256"}],"anonymous":false},{"type":"event","name":"TokensTransferred","inputs":[{"name":"recipient","type":"address","indexed":false,"internalType":"address"},{"name":"amountOfTokens","type":"uint256","indexed":false,"internalType":"uint256"}],"anonymous":false}],"bytecode":{"object":"0x60c06040526605543df729c000600055600860015534801561002057600080fd5b5073c02606969cef1283bbf36190a0a4337805c719d76080523360a052600280546001600160a01b03191673694aa1769357215de4fac081bf1f309adc32530617905560805160a051610f086100e96000396000818160b00152818161031201528181610434015281816105a80152818161082d015281816108b1015281816109a701528181610a210152610a7401526000818161013401528181610222015281816104f60152818161067201528181610763015281816108e00152610bc60152610f086000f3fe6080604052600436106100a05760003560e01c80639223d06d116100645780639223d06d1461046e578063a0ef91df14610484578063cc91c8b014610499578063d60fb174146104b9578063f076e0f1146104ce578063fbd6c0f9146104e4576102e8565b80630e29df22146103bf5780632be8c2a5146103c757806330c0b9ec146103da578063315a095d146104025780638da5cb5b14610422576102e8565b366102e857336001600160a01b037f000000000000000000000000000000000000000000000000000000000000000016146102e65760006100df610518565b905060008054600154600a6100f49190610d3a565b6100fe8434610d4d565b6101089190610d4d565b6101129190610d64565b6040516370a0823160e01b815230600482015290915081906001600160a01b037f000000000000000000000000000000000000000000000000000000000000000016906370a0823190602401602060405180830381865afa15801561017b573d6000803e3d6000fd5b505050506040513d601f19601f8201168201806040525081019061019f9190610d86565b10156101c65760405162461bcd60e51b81526004016101bd90610d9f565b60405180910390fd5b604080513381523460208201529081018290527f8fafebcaf9d154343dad25669bfa277f4fbacd7ac6b0c4fed522580e040a0f339060600160405180910390a160405163a9059cbb60e01b8152336004820152602481018290527f00000000000000000000000000000000000000000000000000000000000000006001600160a01b03169063a9059cbb906044016020604051808303816000875af1158015610273573d6000803e3d6000fd5b505050506040513d601f19601f820116820180604052508101906102979190610de7565b6102e35760405162461bcd60e51b815260206004820152601e60248201527f4661696c656420746f207472616e73666572204275626f20546f6b656e73000060448201526064016101bd565b50505b005b3373c02606969cef1283bbf36190a0a4337805c719d7148015906103355750336001600160a01b037f00000000000000000000000000000000000000000000000000000000000000001614155b156102e65760405162461bcd60e51b815260206004820152604e60248201527f556e737570706f72746564206f7065726174696f6e3a2073656e64696e67207460448201527f6f6b656e73206469726563746c7920746f207468697320636f6e74726163742060648201526d1a5cc81b9bdd08185b1b1bddd95960921b608482015260a4016101bd565b6102e661059d565b6102e66103d5366004610e1e565b610613565b3480156103e657600080fd5b506103ef610518565b6040519081526020015b60405180910390f35b34801561040e57600080fd5b506102e661041d366004610e4a565b610822565b34801561042e57600080fd5b506104567f000000000000000000000000000000000000000000000000000000000000000081565b6040516001600160a01b0390911681526020016103f9565b34801561047a57600080fd5b506103ef60015481565b34801561049057600080fd5b506102e661099c565b3480156104a557600080fd5b506102e66104b4366004610e1e565b610a69565b3480156104c557600080fd5b506103ef610bae565b3480156104da57600080fd5b506103ef60005481565b3480156104f057600080fd5b506104567f000000000000000000000000000000000000000000000000000000000000000081565b600080600260009054906101000a90046001600160a01b03166001600160a01b031663feaf968c6040518163ffffffff1660e01b815260040160a060405180830381865afa15801561056e573d6000803e3d6000fd5b505050506040513d601f19601f820116820180604052508101906105929190610e82565b509195945050505050565b336001600160a01b037f000000000000000000000000000000000000000000000000000000000000000016146106115760405162461bcd60e51b815260206004820152601960248201527827b7363c9037bbb732b91031b0b71039b2b7321022ba3432b960391b60448201526064016101bd565b565b600061061d610518565b905060008054600154600a6106329190610d3a565b61063c8486610d4d565b6106469190610d4d565b6106509190610d64565b6040516370a0823160e01b815230600482015290915081906001600160a01b037f000000000000000000000000000000000000000000000000000000000000000016906370a0823190602401602060405180830381865afa1580156106b9573d6000803e3d6000fd5b505050506040513d601f19601f820116820180604052508101906106dd9190610d86565b10156106fb5760405162461bcd60e51b81526004016101bd90610d9f565b604080516001600160a01b0386168152602081018390527f12f4533b5cbd2c9f8a0752a2d0b16379af992dbb2a0844a5007a19d983b3a934910160405180910390a160405163a9059cbb60e01b81526001600160a01b038581166004830152602482018390527f0000000000000000000000000000000000000000000000000000000000000000169063a9059cbb906044016020604051808303816000875af11580156107ac573d6000803e3d6000fd5b505050506040513d601f19601f820116820180604052508101906107d09190610de7565b61081c5760405162461bcd60e51b815260206004820152601e60248201527f4661696c656420746f207472616e73666572204275626f20746f6b656e73000060448201526064016101bd565b50505050565b336001600160a01b037f0000000000000000000000000000000000000000000000000000000000000000161461089a5760405162461bcd60e51b815260206004820152601e60248201527f4f6e6c79206f776e65722063616e20776974686472617720746f6b656e73000060448201526064016101bd565b60405163a9059cbb60e01b81526001600160a01b037f000000000000000000000000000000000000000000000000000000000000000081166004830152602482018390527f0000000000000000000000000000000000000000000000000000000000000000169063a9059cbb906044016020604051808303816000875af1158015610929573d6000803e3d6000fd5b505050506040513d601f19601f8201168201806040525081019061094d9190610de7565b6109995760405162461bcd60e51b815260206004820152601e60248201527f4661696c656420746f207472616e73666572204275626f20546f6b656e73000060448201526064016101bd565b50565b336001600160a01b037f00000000000000000000000000000000000000000000000000000000000000001614610a145760405162461bcd60e51b815260206004820152601b60248201527f4f6e6c79206f776e65722063616e20776974686472617720455448000000000060448201526064016101bd565b6040516001600160a01b037f000000000000000000000000000000000000000000000000000000000000000016904780156108fc02916000818181858888f19350505050158015610999573d6000803e3d6000fd5b336001600160a01b037f00000000000000000000000000000000000000000000000000000000000000001614610add5760405162461bcd60e51b815260206004820152601960248201527827b7363c9037bbb732b91031b0b71039b2b7321022ba3432b960391b60448201526064016101bd565b6001600160a01b038216610b335760405162461bcd60e51b815260206004820152601960248201527f496e76616c696420726563697069656e7420616464726573730000000000000060448201526064016101bd565b6040518181526001600160a01b0383169033907fbe3a4157e36eedcd34f3c6a58f8a18d999f1549c785d851410fbe86e5dcb52f09060200160405180910390a36040516001600160a01b0383169082156108fc029083906000818181858888f19350505050158015610ba9573d6000803e3d6000fd5b505050565b6040516370a0823160e01b81523060048201526000907f00000000000000000000000000000000000000000000000000000000000000006001600160a01b0316906370a0823190602401602060405180830381865afa158015610c15573d6000803e3d6000fd5b505050506040513d601f19601f82011682018060405250810190610c399190610d86565b905090565b634e487b7160e01b600052601160045260246000fd5b600181815b80851115610c8f578160001904821115610c7557610c75610c3e565b80851615610c8257918102915b93841c9390800290610c59565b509250929050565b600082610ca657506001610d34565b81610cb357506000610d34565b8160018114610cc95760028114610cd357610cef565b6001915050610d34565b60ff841115610ce457610ce4610c3e565b50506001821b610d34565b5060208310610133831016604e8410600b8410161715610d12575081810a610d34565b610d1c8383610c54565b8060001904821115610d3057610d30610c3e565b0290505b92915050565b6000610d468383610c97565b9392505050565b8082028115828204841417610d3457610d34610c3e565b600082610d8157634e487b7160e01b600052601260045260246000fd5b500490565b600060208284031215610d9857600080fd5b5051919050565b60208082526028908201527f496e73756666696369656e74204275626f20546f6b656e7320696e207468652060408201526718dbdb9d1c9858dd60c21b606082015260800190565b600060208284031215610df957600080fd5b81518015158114610d4657600080fd5b6001600160a01b038116811461099957600080fd5b60008060408385031215610e3157600080fd5b8235610e3c81610e09565b946020939093013593505050565b600060208284031215610e5c57600080fd5b5035919050565b805169ffffffffffffffffffff81168114610e7d57600080fd5b919050565b600080600080600060a08688031215610e9a57600080fd5b610ea386610e63565b9450602086015193506040860151925060608601519150610ec660808701610e63565b9050929550929590935056fea2646970667358221220e0da0ad8fe2266b28acd0544ba3b48c5094c9b657289857014511c54a12bb4e264736f6c63430008180033","linkReferences":{}},"methodIdentifiers":{"buboToken()":"fbd6c0f9","ethPriceFeedDecimals()":"9223d06d","getBuboBalance()":"d60fb174","getLatestEthPrice()":"30c0b9ec","owner()":"8da5cb5b","ownerSendEtherTo(address,uint256)":"cc91c8b0","sendEther()":"0e29df22","tokenPriceInUSD()":"f076e0f1","transferTokensTo(address,uint256)":"2be8c2a5","withdrawEth()":"a0ef91df","withdrawTokens(uint256)":"315a095d"},"id":1}